{
  "_format": "hh-sol-artifact-1",
  "contractName": "Voter",
  "sourceName": "contracts/voter.sol",
  "abi": [
    {
      "inputs": [],
      "name": "FailedCall",
      "type": "error"
    },
    {
      "inputs": [
        {
          "internalType": "uint256",
          "name": "balance",
          "type": "uint256"
        },
        {
          "internalType": "uint256",
          "name": "needed",
          "type": "uint256"
        }
      ],
      "name": "InsufficientBalance",
      "type": "error"
    },
    {
      "inputs": [],
      "name": "InvalidInitialization",
      "type": "error"
    },
    {
      "inputs": [
        {
          "internalType": "uint256",
          "name": "amount",
          "type": "uint256"
        }
      ],
      "name": "InvalidVoteAmount",
      "type": "error"
    },
    {
      "inputs": [
        {
          "internalType": "uint256",
          "name": "id",
          "type": "uint256"
        }
      ],
      "name": "InvalidVoteId",
      "type": "error"
    },
    {
      "inputs": [],
      "name": "NotInitializing",
      "type": "error"
    },
    {
      "inputs": [
        {
          "internalType": "address",
          "name": "owner",
          "type": "address"
        }
      ],
      "name": "OwnableInvalidOwner",
      "type": "error"
    },
    {
      "inputs": [
        {
          "internalType": "address",
          "name": "account",
          "type": "address"
        }
      ],
      "name": "OwnableUnauthorizedAccount",
      "type": "error"
    },
    {
      "inputs": [],
      "name": "ReentrancyDetected",
      "type": "error"
    },
    {
      "inputs": [
        {
          "internalType": "uint256",
          "name": "id",
          "type": "uint256"
        }
      ],
      "name": "VoteAlreadyCast",
      "type": "error"
    },
    {
      "anonymous": false,
      "inputs": [
        {
          "indexed": false,
          "internalType": "uint64",
          "name": "version",
          "type": "uint64"
        }
      ],
      "name": "Initialized",
      "type": "event"
    },
    {
      "anonymous": false,
      "inputs": [
        {
          "indexed": true,
          "internalType": "address",
          "name": "previousOwner",
          "type": "address"
        },
        {
          "indexed": true,
          "internalType": "address",
          "name": "newOwner",
          "type": "address"
        }
      ],
      "name": "OwnershipTransferred",
      "type": "event"
    },
    {
      "anonymous": false,
      "inputs": [],
      "name": "Paused",
      "type": "event"
    },
    {
      "anonymous": false,
      "inputs": [],
      "name": "Unpaused",
      "type": "event"
    },
    {
      "anonymous": false,
      "inputs": [
        {
          "indexed": true,
          "internalType": "uint256",
          "name": "id",
          "type": "uint256"
        }
      ],
      "name": "VoteIdAdded",
      "type": "event"
    },
    {
      "anonymous": false,
      "inputs": [
        {
          "indexed": true,
          "internalType": "uint256",
          "name": "id",
          "type": "uint256"
        }
      ],
      "name": "VoteIdRemoved",
      "type": "event"
    },
    {
      "anonymous": false,
      "inputs": [
        {
          "indexed": true,
          "internalType": "uint256",
          "name": "id",
          "type": "uint256"
        },
        {
          "indexed": true,
          "internalType": "address",
          "name": "voter",
          "type": "address"
        }
      ],
      "name": "Voter__Cast",
      "type": "event"
    },
    {
      "anonymous": false,
      "inputs": [
        {
          "indexed": false,
          "internalType": "uint256",
          "name": "amount",
          "type": "uint256"
        }
      ],
      "name": "Withdrawn",
      "type": "event"
    },
    {
      "stateMutability": "payable",
      "type": "fallback"
    },
    {
      "inputs": [
        {
          "internalType": "uint256",
          "name": "_id",
          "type": "uint256"
        }
      ],
      "name": "addAcceptableId",
      "outputs": [],
      "stateMutability": "nonpayable",
      "type": "function"
    },
    {
      "inputs": [
        {
          "internalType": "uint256",
          "name": "_id",
          "type": "uint256"
        }
      ],
      "name": "castVote",
      "outputs": [
        {
          "internalType": "bool",
          "name": "",
          "type": "bool"
        }
      ],
      "stateMutability": "payable",
      "type": "function"
    },
    {
      "inputs": [
        {
          "internalType": "uint256",
          "name": "totalIds",
          "type": "uint256"
        }
      ],
      "name": "getAllVotes",
      "outputs": [
        {
          "internalType": "address[]",
          "name": "",
          "type": "address[]"
        }
      ],
      "stateMutability": "view",
      "type": "function"
    },
    {
      "inputs": [
        {
          "internalType": "uint256",
          "name": "_id",
          "type": "uint256"
        }
      ],
      "name": "getVote",
      "outputs": [
        {
          "internalType": "address",
          "name": "",
          "type": "address"
        }
      ],
      "stateMutability": "view",
      "type": "function"
    },
    {
      "inputs": [
        {
          "internalType": "uint256[]",
          "name": "ids",
          "type": "uint256[]"
        }
      ],
      "name": "initialize",
      "outputs": [],
      "stateMutability": "nonpayable",
      "type": "function"
    },
    {
      "inputs": [
        {
          "internalType": "uint256",
          "name": "",
          "type": "uint256"
        }
      ],
      "name": "isAcceptableId",
      "outputs": [
        {
          "internalType": "bool",
          "name": "",
          "type": "bool"
        }
      ],
      "stateMutability": "view",
      "type": "function"
    },
    {
      "inputs": [],
      "name": "owner",
      "outputs": [
        {
          "internalType": "address",
          "name": "",
          "type": "address"
        }
      ],
      "stateMutability": "view",
      "type": "function"
    },
    {
      "inputs": [],
      "name": "pause",
      "outputs": [],
      "stateMutability": "nonpayable",
      "type": "function"
    },
    {
      "inputs": [],
      "name": "paused",
      "outputs": [
        {
          "internalType": "bool",
          "name": "",
          "type": "bool"
        }
      ],
      "stateMutability": "view",
      "type": "function"
    },
    {
      "inputs": [
        {
          "internalType": "uint256",
          "name": "_id",
          "type": "uint256"
        }
      ],
      "name": "removeAcceptableId",
      "outputs": [],
      "stateMutability": "nonpayable",
      "type": "function"
    },
    {
      "inputs": [],
      "name": "renounceOwnership",
      "outputs": [],
      "stateMutability": "nonpayable",
      "type": "function"
    },
    {
      "inputs": [
        {
          "internalType": "address",
          "name": "newOwner",
          "type": "address"
        }
      ],
      "name": "transferOwnership",
      "outputs": [],
      "stateMutability": "nonpayable",
      "type": "function"
    },
    {
      "inputs": [],
      "name": "unpause",
      "outputs": [],
      "stateMutability": "nonpayable",
      "type": "function"
    },
    {
      "inputs": [
        {
          "internalType": "uint256",
          "name": "",
          "type": "uint256"
        }
      ],
      "name": "votes",
      "outputs": [
        {
          "internalType": "address",
          "name": "",
          "type": "address"
        }
      ],
      "stateMutability": "view",
      "type": "function"
    },
    {
      "inputs": [],
      "name": "withdraw",
      "outputs": [],
      "stateMutability": "nonpayable",
      "type": "function"
    },
    {
      "stateMutability": "payable",
      "type": "receive"
    }
  ],
  "bytecode": "0x6080604052348015600f57600080fd5b506117e58061001f6000396000f3fe6080604052600436106100ec5760003560e01c80636fe0e5591161008a578063ba0d9a6111610059578063ba0d9a61146102b1578063f2fde38b146102da578063f365aa0a14610303578063f54fc9a614610340576100ed565b80636fe0e5591461022f578063715018a6146102585780638456cb591461026f5780638da5cb5b14610286576100ed565b806344897a6b116100c657806344897a6b1461014d5780635a55c1f01461018a5780635c975abb146101c75780635df81330146101f2576100ed565b80633ccfd60b146100ef5780633eb76b9c146101065780633f4ba83a14610136576100ed565b5b005b3480156100fb57600080fd5b50610104610369565b005b610120600480360381019061011b9190611179565b6104a0565b60405161012d91906111c1565b60405180910390f35b34801561014257600080fd5b5061014b6106e1565b005b34801561015957600080fd5b50610174600480360381019061016f9190611179565b610732565b60405161018191906112cc565b60405180910390f35b34801561019657600080fd5b506101b160048036038101906101ac9190611179565b6108aa565b6040516101be91906112fd565b60405180910390f35b3480156101d357600080fd5b506101dc6108e6565b6040516101e991906111c1565b60405180910390f35b3480156101fe57600080fd5b5061021960048036038101906102149190611179565b6108f9565b60405161022691906112fd565b60405180910390f35b34801561023b57600080fd5b5061025660048036038101906102519190611471565b61092c565b005b34801561026457600080fd5b5061026d610b50565b005b34801561027b57600080fd5b50610284610b64565b005b34801561029257600080fd5b5061029b610bb5565b6040516102a891906112fd565b60405180910390f35b3480156102bd57600080fd5b506102d860048036038101906102d39190611179565b610bed565b005b3480156102e657600080fd5b5061030160048036038101906102fc91906114e6565b610c51565b005b34801561030f57600080fd5b5061032a60048036038101906103259190611179565b610cd7565b60405161033791906111c1565b60405180910390f35b34801561034c57600080fd5b5061036760048036038101906103629190611179565b610cf7565b005b610371610d5a565b600260019054906101000a900460ff16156103b8576040517fc5f2be5100000000000000000000000000000000000000000000000000000000815260040160405180910390fd5b6001600260016101000a81548160ff02191690831515021790555060004790506000811161041b576040517f08c379a000000000000000000000000000000000000000000000000000000000815260040161041290611570565b60405180910390fd5b61044b81610427610bb5565b73ffffffffffffffffffffffffffffffffffffffff16610de190919063ffffffff16565b7f430648de173157e069201c943adb2d4e340e7cf5b27b1b09c9cb852f03d63b568160405161047a919061159f565b60405180910390a1506000600260016101000a81548160ff021916908315150217905550565b6000600260009054906101000a900460ff16156104f2576040517f08c379a00000000000000000000000000000000000000000000000000000000081526004016104e990611606565b60405180910390fd5b662386f26fc1000034101561053e57346040517fa251c7d2000000000000000000000000000000000000000000000000000000008152600401610535919061159f565b60405180910390fd5b6001600083815260200190815260200160002060009054906101000a900460ff166105a057816040517f1f97433b000000000000000000000000000000000000000000000000000000008152600401610597919061159f565b60405180910390fd5b600073ffffffffffffffffffffffffffffffffffffffff1660008084815260200190815260200160002060009054906101000a900473ffffffffffffffffffffffffffffffffffffffff1673ffffffffffffffffffffffffffffffffffffffff161461064357816040517f676ae30200000000000000000000000000000000000000000000000000000000815260040161063a919061159f565b60405180910390fd5b3360008084815260200190815260200160002060006101000a81548173ffffffffffffffffffffffffffffffffffffffff021916908373ffffffffffffffffffffffffffffffffffffffff1602179055503373ffffffffffffffffffffffffffffffffffffffff16827f7660ea976509a796cf956ab79f6d2a3494ae9810151bb5a9002e3c7f3bf2d31860405160405180910390a360019050919050565b6106e9610d5a565b6000600260006101000a81548160ff0219169083151502179055507fa45f47fdea8a1efdd9029a5691c7f759c32b7c698632b563573e155625d1693360405160405180910390a1565b60606000805b83811015610782576001600082815260200190815260200160002060009054906101000a900460ff161561077557818061077190611655565b9250505b8080600101915050610738565b5060008167ffffffffffffffff81111561079f5761079e61132e565b5b6040519080825280602002602001820160405280156107cd5781602001602082028036833780820191505090505b5090506000805b8581101561089e576001600082815260200190815260200160002060009054906101000a900460ff16156108915760008082815260200190815260200160002060009054906101000a900473ffffffffffffffffffffffffffffffffffffffff168383815181106108485761084761169d565b5b602002602001019073ffffffffffffffffffffffffffffffffffffffff16908173ffffffffffffffffffffffffffffffffffffffff1681525050818061088d90611655565b9250505b80806001019150506107d4565b50819350505050919050565b600080600083815260200190815260200160002060009054906101000a900473ffffffffffffffffffffffffffffffffffffffff169050919050565b600260009054906101000a900460ff1681565b60006020528060005260406000206000915054906101000a900473ffffffffffffffffffffffffffffffffffffffff1681565b6000610936610eab565b905060008160000160089054906101000a900460ff1615905060008260000160009054906101000a900467ffffffffffffffff1690506000808267ffffffffffffffff161480156109845750825b9050600060018367ffffffffffffffff161480156109b9575060003073ffffffffffffffffffffffffffffffffffffffff163b145b9050811580156109c7575080155b156109fe576040517ff92ee8a900000000000000000000000000000000000000000000000000000000815260040160405180910390fd5b60018560000160006101000a81548167ffffffffffffffff021916908367ffffffffffffffff1602179055508315610a4e5760018560000160086101000a81548160ff0219169083151502179055505b610a5733610ebf565b6000600260006101000a81548160ff0219169083151502179055506000600260016101000a81548160ff02191690831515021790555060005b8651811015610aeb576001806000898481518110610ab157610ab061169d565b5b6020026020010151815260200190815260200160002060006101000a81548160ff0219169083151502179055508080600101915050610a90565b508315610b485760008560000160086101000a81548160ff0219169083151502179055507fc7f505b2f371ae2175ee4913f4499e1f2633a7b5936321eed1cdaeb6115181d26001604051610b3f9190611725565b60405180910390a15b505050505050565b610b58610d5a565b610b626000610ed3565b565b610b6c610d5a565b6001600260006101000a81548160ff0219169083151502179055507f9e87fac88ff661f02d44f95383c817fece4bce600a3dab7a54406878b965e75260405160405180910390a1565b600080610bc0610faa565b90508060000160009054906101000a900473ffffffffffffffffffffffffffffffffffffffff1691505090565b610bf5610d5a565b60006001600083815260200190815260200160002060006101000a81548160ff021916908315150217905550807ffed312f1fab915de1abca2cadfdc241d05a0191c0e9a6a2570dd798196d90c8a60405160405180910390a250565b610c59610d5a565b600073ffffffffffffffffffffffffffffffffffffffff168173ffffffffffffffffffffffffffffffffffffffff1603610ccb5760006040517f1e4fbdf7000000000000000000000000000000000000000000000000000000008152600401610cc291906112fd565b60405180910390fd5b610cd481610ed3565b50565b60016020528060005260406000206000915054906101000a900460ff1681565b610cff610d5a565b600180600083815260200190815260200160002060006101000a81548160ff021916908315150217905550807f506ac317f696a9d66bac79c9a3d4e59647a726132bd436f8b1cb6c812226787160405160405180910390a250565b610d62610fd2565b73ffffffffffffffffffffffffffffffffffffffff16610d80610bb5565b73ffffffffffffffffffffffffffffffffffffffff1614610ddf57610da3610fd2565b6040517f118cdaa7000000000000000000000000000000000000000000000000000000008152600401610dd691906112fd565b60405180910390fd5b565b80471015610e285747816040517fcf479181000000000000000000000000000000000000000000000000000000008152600401610e1f929190611740565b60405180910390fd5b6000808373ffffffffffffffffffffffffffffffffffffffff1683604051610e4f9061179a565b60006040518083038185875af1925050503d8060008114610e8c576040519150601f19603f3d011682016040523d82523d6000602084013e610e91565b606091505b509150915081610ea557610ea481610fda565b5b50505050565b600080610eb661101e565b90508091505090565b610ec7611049565b610ed081611089565b50565b6000610edd610faa565b905060008160000160009054906101000a900473ffffffffffffffffffffffffffffffffffffffff169050828260000160006101000a81548173ffffffffffffffffffffffffffffffffffffffff021916908373ffffffffffffffffffffffffffffffffffffffff1602179055508273ffffffffffffffffffffffffffffffffffffffff168173ffffffffffffffffffffffffffffffffffffffff167f8be0079c531659141344cd1fd0a4f28419497f9722a3daafe3b4186f6b6457e060405160405180910390a3505050565b60007f9016d09d72d40fdae2fd8ceac6b6234c7706214fd39c1cd1e609a0528c199300905090565b600033905090565b600081511115610fec57805160208201fd5b6040517fd6bda27500000000000000000000000000000000000000000000000000000000815260040160405180910390fd5b60007ff0c57e16840df040f15088dc2f81fe391c3923bec73e23a9662efc9c229c6a0060001b905090565b61105161110f565b611087576040517fd7e6bcf800000000000000000000000000000000000000000000000000000000815260040160405180910390fd5b565b611091611049565b600073ffffffffffffffffffffffffffffffffffffffff168173ffffffffffffffffffffffffffffffffffffffff16036111035760006040517f1e4fbdf70000000000000000000000000000000000000000000000000000000081526004016110fa91906112fd565b60405180910390fd5b61110c81610ed3565b50565b6000611119610eab565b60000160089054906101000a900460ff16905090565b6000604051905090565b600080fd5b600080fd5b6000819050919050565b61115681611143565b811461116157600080fd5b50565b6000813590506111738161114d565b92915050565b60006020828403121561118f5761118e611139565b5b600061119d84828501611164565b91505092915050565b60008115159050919050565b6111bb816111a6565b82525050565b60006020820190506111d660008301846111b2565b92915050565b600081519050919050565b600082825260208201905092915050565b6000819050602082019050919050565b600073ffffffffffffffffffffffffffffffffffffffff82169050919050565b600061123382611208565b9050919050565b61124381611228565b82525050565b6000611255838361123a565b60208301905092915050565b6000602082019050919050565b6000611279826111dc565b61128381856111e7565b935061128e836111f8565b8060005b838110156112bf5781516112a68882611249565b97506112b183611261565b925050600181019050611292565b5085935050505092915050565b600060208201905081810360008301526112e6818461126e565b905092915050565b6112f781611228565b82525050565b600060208201905061131260008301846112ee565b92915050565b600080fd5b6000601f19601f8301169050919050565b7f4e487b7100000000000000000000000000000000000000000000000000000000600052604160045260246000fd5b6113668261131d565b810181811067ffffffffffffffff821117156113855761138461132e565b5b80604052505050565b600061139861112f565b90506113a4828261135d565b919050565b600067ffffffffffffffff8211156113c4576113c361132e565b5b602082029050602081019050919050565b600080fd5b60006113ed6113e8846113a9565b61138e565b905080838252602082019050602084028301858111156114105761140f6113d5565b5b835b8181101561143957806114258882611164565b845260208401935050602081019050611412565b5050509392505050565b600082601f83011261145857611457611318565b5b81356114688482602086016113da565b91505092915050565b60006020828403121561148757611486611139565b5b600082013567ffffffffffffffff8111156114a5576114a461113e565b5b6114b184828501611443565b91505092915050565b6114c381611228565b81146114ce57600080fd5b50565b6000813590506114e0816114ba565b92915050565b6000602082840312156114fc576114fb611139565b5b600061150a848285016114d1565b91505092915050565b600082825260208201905092915050565b7f4e6f7468696e6720746f20776974686472617700000000000000000000000000600082015250565b600061155a601383611513565b915061156582611524565b602082019050919050565b600060208201905081810360008301526115898161154d565b9050919050565b61159981611143565b82525050565b60006020820190506115b46000830184611590565b92915050565b7f566f74696e672069732070617573656400000000000000000000000000000000600082015250565b60006115f0601083611513565b91506115fb826115ba565b602082019050919050565b6000602082019050818103600083015261161f816115e3565b9050919050565b7f4e487b7100000000000000000000000000000000000000000000000000000000600052601160045260246000fd5b600061166082611143565b91507fffffffffffffffffffffffffffffffffffffffffffffffffffffffffffffffff820361169257611691611626565b5b600182019050919050565b7f4e487b7100000000000000000000000000000000000000000000000000000000600052603260045260246000fd5b6000819050919050565b600067ffffffffffffffff82169050919050565b6000819050919050565b600061170f61170a611705846116cc565b6116ea565b6116d6565b9050919050565b61171f816116f4565b82525050565b600060208201905061173a6000830184611716565b92915050565b60006040820190506117556000830185611590565b6117626020830184611590565b9392505050565b600081905092915050565b50565b6000611784600083611769565b915061178f82611774565b600082019050919050565b60006117a582611777565b915081905091905056fea26469706673582212205bc0e6d9ea01e973ad6fbbb6901b1a040d079d90aee80b09401cfe8c3351ab6364736f6c634300081c0033",
  "linkReferences": {},
  "deployedLinkReferences": {}
}